{
  "_format": "hh-sol-artifact-1",
  "contractName": "PatientDataConsent",
  "sourceName": "contracts/PatientDataConsent.sol",
  "abi": [
    {
      "inputs": [],
      "stateMutability": "nonpayable",
      "type": "constructor"
    },
    {
      "anonymous": false,
      "inputs": [
        {
          "indexed": true,
          "internalType": "address",
          "name": "approver",
          "type": "address"
        }
      ],
      "name": "ApproverAdded",
      "type": "event"
    },
    {
      "anonymous": false,
      "inputs": [
        {
          "indexed": true,
          "internalType": "address",
          "name": "approver",
          "type": "address"
        }
      ],
      "name": "ApproverRemoved",
      "type": "event"
    },
    {
      "anonymous": false,
      "inputs": [
        {
          "indexed": true,
          "internalType": "uint256",
          "name": "id",
          "type": "uint256"
        },
        {
          "indexed": true,
          "internalType": "address",
          "name": "doctor",
          "type": "address"
        },
        {
          "indexed": true,
          "internalType": "address",
          "name": "patient",
          "type": "address"
        }
      ],
      "name": "DataApproved",
      "type": "event"
    },
    {
      "anonymous": false,
      "inputs": [
        {
          "indexed": true,
          "internalType": "uint256",
          "name": "id",
          "type": "uint256"
        },
        {
          "indexed": true,
          "internalType": "address",
          "name": "patient",
          "type": "address"
        },
        {
          "indexed": false,
          "internalType": "string",
          "name": "ipfsHash",
          "type": "string"
        },
        {
          "indexed": false,
          "internalType": "string",
          "name": "recordType",
          "type": "string"
        },
        {
          "indexed": false,
          "internalType": "string",
          "name": "description",
          "type": "string"
        }
      ],
      "name": "DataUploaded",
      "type": "event"
    },
    {
      "inputs": [
        {
          "internalType": "address",
          "name": "_approver",
          "type": "address"
        }
      ],
      "name": "addApprover",
      "outputs": [],
      "stateMutability": "nonpayable",
      "type": "function"
    },
    {
      "inputs": [
        {
          "internalType": "uint256",
          "name": "_id",
          "type": "uint256"
        }
      ],
      "name": "approveData",
      "outputs": [],
      "stateMutability": "nonpayable",
      "type": "function"
    },
    {
      "inputs": [
        {
          "internalType": "address",
          "name": "",
          "type": "address"
        }
      ],
      "name": "approvers",
      "outputs": [
        {
          "internalType": "bool",
          "name": "",
          "type": "bool"
        }
      ],
      "stateMutability": "view",
      "type": "function"
    },
    {
      "inputs": [
        {
          "internalType": "address",
          "name": "",
          "type": "address"
        },
        {
          "internalType": "uint256",
          "name": "",
          "type": "uint256"
        }
      ],
      "name": "doctorApprovals",
      "outputs": [
        {
          "internalType": "uint256",
          "name": "",
          "type": "uint256"
        }
      ],
      "stateMutability": "view",
      "type": "function"
    },
    {
      "inputs": [
        {
          "internalType": "address",
          "name": "_doctor",
          "type": "address"
        }
      ],
      "name": "getDoctorApprovals",
      "outputs": [
        {
          "internalType": "uint256[]",
          "name": "",
          "type": "uint256[]"
        }
      ],
      "stateMutability": "view",
      "type": "function"
    },
    {
      "inputs": [
        {
          "internalType": "address",
          "name": "_patient",
          "type": "address"
        }
      ],
      "name": "getPatientRecords",
      "outputs": [
        {
          "internalType": "uint256[]",
          "name": "",
          "type": "uint256[]"
        }
      ],
      "stateMutability": "view",
      "type": "function"
    },
    {
      "inputs": [
        {
          "internalType": "address",
          "name": "_patient",
          "type": "address"
        }
      ],
      "name": "getPendingRecords",
      "outputs": [
        {
          "internalType": "uint256[]",
          "name": "",
          "type": "uint256[]"
        }
      ],
      "stateMutability": "view",
      "type": "function"
    },
    {
      "inputs": [
        {
          "internalType": "uint256",
          "name": "_id",
          "type": "uint256"
        }
      ],
      "name": "getRecord",
      "outputs": [
        {
          "internalType": "string",
          "name": "ipfsHash",
          "type": "string"
        },
        {
          "internalType": "bool",
          "name": "approved",
          "type": "bool"
        },
        {
          "internalType": "address",
          "name": "patient",
          "type": "address"
        },
        {
          "internalType": "address",
          "name": "doctor",
          "type": "address"
        },
        {
          "internalType": "uint256",
          "name": "timestamp",
          "type": "uint256"
        },
        {
          "internalType": "string",
          "name": "recordType",
          "type": "string"
        },
        {
          "internalType": "string",
          "name": "description",
          "type": "string"
        }
      ],
      "stateMutability": "view",
      "type": "function"
    },
    {
      "inputs": [],
      "name": "getTotalRecords",
      "outputs": [
        {
          "internalType": "uint256",
          "name": "",
          "type": "uint256"
        }
      ],
      "stateMutability": "view",
      "type": "function"
    },
    {
      "inputs": [
        {
          "internalType": "address",
          "name": "_address",
          "type": "address"
        }
      ],
      "name": "isApprover",
      "outputs": [
        {
          "internalType": "bool",
          "name": "",
          "type": "bool"
        }
      ],
      "stateMutability": "view",
      "type": "function"
    },
    {
      "inputs": [],
      "name": "owner",
      "outputs": [
        {
          "internalType": "address",
          "name": "",
          "type": "address"
        }
      ],
      "stateMutability": "view",
      "type": "function"
    },
    {
      "inputs": [
        {
          "internalType": "address",
          "name": "",
          "type": "address"
        },
        {
          "internalType": "uint256",
          "name": "",
          "type": "uint256"
        }
      ],
      "name": "patientRecords",
      "outputs": [
        {
          "internalType": "uint256",
          "name": "",
          "type": "uint256"
        }
      ],
      "stateMutability": "view",
      "type": "function"
    },
    {
      "inputs": [],
      "name": "recordCount",
      "outputs": [
        {
          "internalType": "uint256",
          "name": "",
          "type": "uint256"
        }
      ],
      "stateMutability": "view",
      "type": "function"
    },
    {
      "inputs": [
        {
          "internalType": "uint256",
          "name": "",
          "type": "uint256"
        }
      ],
      "name": "records",
      "outputs": [
        {
          "internalType": "string",
          "name": "ipfsHash",
          "type": "string"
        },
        {
          "internalType": "address",
          "name": "patient",
          "type": "address"
        },
        {
          "internalType": "address",
          "name": "doctor",
          "type": "address"
        },
        {
          "internalType": "bool",
          "name": "approved",
          "type": "bool"
        },
        {
          "internalType": "uint256",
          "name": "timestamp",
          "type": "uint256"
        },
        {
          "internalType": "string",
          "name": "recordType",
          "type": "string"
        },
        {
          "internalType": "string",
          "name": "description",
          "type": "string"
        }
      ],
      "stateMutability": "view",
      "type": "function"
    },
    {
      "inputs": [
        {
          "internalType": "address",
          "name": "_approver",
          "type": "address"
        }
      ],
      "name": "removeApprover",
      "outputs": [],
      "stateMutability": "nonpayable",
      "type": "function"
    },
    {
      "inputs": [
        {
          "internalType": "string",
          "name": "_ipfsHash",
          "type": "string"
        },
        {
          "internalType": "string",
          "name": "_recordType",
          "type": "string"
        },
        {
          "internalType": "string",
          "name": "_description",
          "type": "string"
        }
      ],
      "name": "uploadData",
      "outputs": [],
      "stateMutability": "nonpayable",
      "type": "function"
    }
  ],
  "bytecode": "0x608060405234801561001057600080fd5b50600080546001600160a01b0319163390811782558152600260205260409020805460ff1916600117905561154f8061004a6000396000f3fe608060405234801561001057600080fd5b50600436106101005760003560e01c80636d218e481161009757806394f0df611161006657806394f0df611461026d578063b646c19414610280578063e223975a14610293578063efb1b72b146102a657600080fd5b80636d218e48146101fa57806375700b5e146102265780638da5cb5b14610239578063900407bc1461026457600080fd5b806318bd4847116100d357806318bd48471461019957806334461067146101ac5780635fdebc2e146101d25780636cf4c88f146101e757600080fd5b806303e9e609146101055780630a144391146101345780630aeacb5e14610167578063109bfd4014610179575b600080fd5b610118610113366004611021565b6102b9565b60405161012b9796959493929190611080565b60405180910390f35b610157610142366004611109565b60026020526000908152604090205460ff1681565b604051901515815260200161012b565b6005545b60405190815260200161012b565b61018c610187366004611109565b61051b565b60405161012b919061112b565b61018c6101a7366004611109565b610587565b6101bf6101ba366004611021565b6105f1565b60405161012b979695949392919061116f565b6101e56101e0366004611021565b6107da565b005b6101e56101f5366004611109565b610994565b610157610208366004611109565b6001600160a01b031660009081526002602052604090205460ff1690565b6101e561023436600461125d565b610ab5565b60005461024c906001600160a01b031681565b6040516001600160a01b03909116815260200161012b565b61016b60055481565b61016b61027b3660046112e5565b610cbe565b6101e561028e366004611109565b610cef565b61018c6102a1366004611109565b610e0c565b61016b6102b43660046112e5565b611005565b60606000806000806060808760055481106103135760405162461bcd60e51b8152602060048201526015602482015274149958dbdc9908191bd95cc81b9bdd08195e1a5cdd605a1b60448201526064015b60405180910390fd5b6000898152600160208190526040909120600281015491810154600382015482549293849360ff600160a01b830416936001600160a01b0390811693921691906004860190600587019087906103689061130f565b80601f01602080910402602001604051908101604052809291908181526020018280546103949061130f565b80156103e15780601f106103b6576101008083540402835291602001916103e1565b820191906000526020600020905b8154815290600101906020018083116103c457829003601f168201915b505050505096508180546103f49061130f565b80601f01602080910402602001604051908101604052809291908181526020018280546104209061130f565b801561046d5780601f106104425761010080835404028352916020019161046d565b820191906000526020600020905b81548152906001019060200180831161045057829003601f168201915b505050505091508080546104809061130f565b80601f01602080910402602001604051908101604052809291908181526020018280546104ac9061130f565b80156104f95780601f106104ce576101008083540402835291602001916104f9565b820191906000526020600020905b8154815290600101906020018083116104dc57829003601f168201915b5050505050905098509850985098509850985098505050919395979092949650565b6001600160a01b03811660009081526004602090815260409182902080548351818402810184019094528084526060939283018282801561057b57602002820191906000526020600020905b815481526020019060010190808311610567575b50505050509050919050565b6001600160a01b03811660009081526003602090815260409182902080548351818402810184019094528084526060939283018282801561057b57602002820191906000526020600020908154815260200190600101908083116105675750505050509050919050565b60016020526000908152604090208054819061060c9061130f565b80601f01602080910402602001604051908101604052809291908181526020018280546106389061130f565b80156106855780601f1061065a57610100808354040283529160200191610685565b820191906000526020600020905b81548152906001019060200180831161066857829003601f168201915b5050505060018301546002840154600385015460048601805495966001600160a01b03948516969484169550600160a01b90930460ff16939192916106c99061130f565b80601f01602080910402602001604051908101604052809291908181526020018280546106f59061130f565b80156107425780601f1061071757610100808354040283529160200191610742565b820191906000526020600020905b81548152906001019060200180831161072557829003601f168201915b5050505050908060050180546107579061130f565b80601f01602080910402602001604051908101604052809291908181526020018280546107839061130f565b80156107d05780601f106107a5576101008083540402835291602001916107d0565b820191906000526020600020905b8154815290600101906020018083116107b357829003601f168201915b5050505050905087565b3360009081526002602052604090205460ff166108525760405162461bcd60e51b815260206004820152603060248201527f4f6e6c7920617574686f72697a656420617070726f766572732063616e20636160448201526f3636103a3434b990333ab731ba34b7b760811b606482015260840161030a565b80600554811061089c5760405162461bcd60e51b8152602060048201526015602482015274149958dbdc9908191bd95cc81b9bdd08195e1a5cdd605a1b604482015260640161030a565b60008281526001602052604090206002810154600160a01b900460ff16156109065760405162461bcd60e51b815260206004820152601760248201527f5265636f726420616c726561647920617070726f766564000000000000000000604482015260640161030a565b60028101805460ff60a01b19339081166001600160a81b031990921691909117600160a01b1790915560008181526004602090815260408083208054600181810183559185529284209092018790559084015490516001600160a01b0391909116929186917f5fb350d35e5261923cdda71685cb483abd538584e4fd3b577e9d97043f6179509190a4505050565b6000546001600160a01b031633146109be5760405162461bcd60e51b815260040161030a90611349565b6000546001600160a01b0390811690821603610a125760405162461bcd60e51b815260206004820152601360248201527221b0b73737ba103932b6b7bb329037bbb732b960691b604482015260640161030a565b6001600160a01b03811660009081526002602052604090205460ff16610a6c5760405162461bcd60e51b815260206004820152600f60248201526e2737ba1030b71030b8383937bb32b960891b604482015260640161030a565b6001600160a01b038116600081815260026020526040808220805460ff19169055517fc6e35658c76ecdde40a54f31a91fb7c8615e9893cc0885584b27bb3433270d469190a250565b6000835111610b065760405162461bcd60e51b815260206004820152601960248201527f4950465320686173682063616e6e6f7420626520656d70747900000000000000604482015260640161030a565b6000825111610b575760405162461bcd60e51b815260206004820152601b60248201527f5265636f726420747970652063616e6e6f7420626520656d7074790000000000604482015260640161030a565b6040805160e0810182528481523360208083019190915260008284018190526060830181905242608084015260a0830186905260c08301859052600554815260019091529190912081518190610bad90826113d9565b5060208201516001820180546001600160a01b0319166001600160a01b0392831617905560408301516002830180546060860151929093166001600160a81b031990931692909217600160a01b911515919091021790556080820151600382015560a08201516004820190610c2290826113d9565b5060c08201516005820190610c3790826113d9565b505033600081815260036020908152604080832060058054825460018101845592865293909420019190915590549051919250907f65a19b151f652b2bee47bde49100611635d94090f414d8f72494eb6e821767fb90610c9c90879087908790611499565b60405180910390a360058054906000610cb4836114dc565b9190505550505050565b60036020528160005260406000208181548110610cda57600080fd5b90600052602060002001600091509150505481565b6000546001600160a01b03163314610d195760405162461bcd60e51b815260040161030a90611349565b6001600160a01b038116610d615760405162461bcd60e51b815260206004820152600f60248201526e496e76616c6964206164647265737360881b604482015260640161030a565b6001600160a01b03811660009081526002602052604090205460ff1615610dc05760405162461bcd60e51b815260206004820152601360248201527220b63932b0b23c9030b71030b8383937bb32b960691b604482015260640161030a565b6001600160a01b038116600081815260026020526040808220805460ff19166001179055517f835bddf1ceee4956e4329af9edf018523c1191238187a597453f6020bcadb0429190a250565b6001600160a01b0381166000908152600360209081526040808320805482518185028101850190935280835260609493830182828015610e6b57602002820191906000526020600020905b815481526020019060010190808311610e57575b505050505090506000815167ffffffffffffffff811115610e8e57610e8e6111ba565b604051908082528060200260200182016040528015610eb7578160200160208202803683370190505b5090506000805b8351811015610f5f5760016000858381518110610edd57610edd611503565b6020026020010151815260200190815260200160002060020160149054906101000a900460ff16610f4d57838181518110610f1a57610f1a611503565b6020026020010151838381518110610f3457610f34611503565b602090810291909101015281610f49816114dc565b9250505b80610f57816114dc565b915050610ebe565b5060008167ffffffffffffffff811115610f7b57610f7b6111ba565b604051908082528060200260200182016040528015610fa4578160200160208202803683370190505b50905060005b82811015610ffb57838181518110610fc457610fc4611503565b6020026020010151828281518110610fde57610fde611503565b602090810291909101015280610ff3816114dc565b915050610faa565b5095945050505050565b60046020528160005260406000208181548110610cda57600080fd5b60006020828403121561103357600080fd5b5035919050565b6000815180845260005b8181101561106057602081850181015186830182015201611044565b506000602082860101526020601f19601f83011685010191505092915050565b60e08152600061109360e083018a61103a565b88151560208401526001600160a01b038881166040850152871660608401526080830186905282810360a08401526110cb818661103a565b905082810360c08401526110df818561103a565b9a9950505050505050505050565b80356001600160a01b038116811461110457600080fd5b919050565b60006020828403121561111b57600080fd5b611124826110ed565b9392505050565b6020808252825182820181905260009190848201906040850190845b8181101561116357835183529284019291840191600101611147565b50909695505050505050565b60e08152600061118260e083018a61103a565b6001600160a01b0389811660208501528816604084015286151560608401526080830186905282810360a08401526110cb818661103a565b634e487b7160e01b600052604160045260246000fd5b600082601f8301126111e157600080fd5b813567ffffffffffffffff808211156111fc576111fc6111ba565b604051601f8301601f19908116603f01168101908282118183101715611224576112246111ba565b8160405283815286602085880101111561123d57600080fd5b836020870160208301376000602085830101528094505050505092915050565b60008060006060848603121561127257600080fd5b833567ffffffffffffffff8082111561128a57600080fd5b611296878388016111d0565b945060208601359150808211156112ac57600080fd5b6112b8878388016111d0565b935060408601359150808211156112ce57600080fd5b506112db868287016111d0565b9150509250925092565b600080604083850312156112f857600080fd5b611301836110ed565b946020939093013593505050565b600181811c9082168061132357607f821691505b60208210810361134357634e487b7160e01b600052602260045260246000fd5b50919050565b60208082526021908201527f4f6e6c79206f776e65722063616e2063616c6c20746869732066756e6374696f6040820152603760f91b606082015260800190565b601f8211156113d457600081815260208120601f850160051c810160208610156113b15750805b601f850160051c820191505b818110156113d0578281556001016113bd565b5050505b505050565b815167ffffffffffffffff8111156113f3576113f36111ba565b61140781611401845461130f565b8461138a565b602080601f83116001811461143c57600084156114245750858301515b600019600386901b1c1916600185901b1785556113d0565b600085815260208120601f198616915b8281101561146b5788860151825594840194600190910190840161144c565b50858210156114895787850151600019600388901b60f8161c191681555b5050505050600190811b01905550565b6060815260006114ac606083018661103a565b82810360208401526114be818661103a565b905082810360408401526114d2818561103a565b9695505050505050565b6000600182016114fc57634e487b7160e01b600052601160045260246000fd5b5060010190565b634e487b7160e01b600052603260045260246000fdfea2646970667358221220a9ad60a9ec98931e88fa3931e2d514ece3c2107043e2c6434d0ed2dd6df365e064736f6c63430008140033",
  "linkReferences": {},
  "deployedLinkReferences": {}
}